:020000040000FA
:0600000070EF16F0120083
:06000800A8EF04F0120055
:060018007BEF05F0120071
:06002A000200902D000011
:100030008000000069000000402D0000000F00005B
:04004000500000006C
:0C004400D9CFE6FFDACFE6FFE1CFD9FF0D
:10005000E2CFDAFF160EE12402E3E168E652E16E38
:10006000FA0EDBCF07F0FB0EDBCF08F0FC0EDBCF88
:1000700009F0FD0EDBCF0AF00A34000E0A1809E67B
:10008000D8807F0E0754960E0854980E0954000E1F
:100090000A5411E27F0EF36EFA0EF3CFDBFF960ED9
:1000A000F36EFB0EF3CFDBFF980EF36EFC0EF3CF77
:1000B000DBFFFD0EDB6AD950FA0FE96EFF0EDA2086
:1000C000EA6ED890030EEB50000A08E6000EEE5CD4
:1000D000000EEE58000EEE58000EEE5808E2FA0E32
:1000E000DB6AFB0EDB6AFC0EDB6AFD0EDB6A140EBC
:1000F000DB6A150EDB6A140EDBCF14F0150EDBCFB6
:1001000015F0166A176A15AE02D016681768F60E53
:10011000DBCF07F0F70EDBCF08F0F80EDBCF09F0EE
:10012000F90EDBCF0AF017500A18E8AE02D00A34F5
:1001300008D00750145C08501558095016580A503A
:10014000175861E2FA0EDBCF16F0FB0EDBCF17F08B
:10015000FC0EDBCF18F0FD0EDBCF19F00A0E0B6E94
:100160000C6A0D6A0E6A16C006F017C007F018C0B8
:1001700008F019C009F0E2EC11F002C016F003C05B
:1001800017F004C018F005C019F0D9CF14F0DACF79
:1001900015F0020E086E096A140EDBCF0DF0150E75
:1001A000DBCF0EF016EC12F014500624E96E155059
:1001B0000720EA6E16C0EEFF17C0EDFFFA0EDBCF88
:1001C00006F0FB0EDBCF07F0FC0EDBCF08F0FD0ED8
:1001D000DBCF09F00A0E0B6E0C6A0D6A0E6AE2ECB8
:1001E00011F0FA0E06C0DBFFFB0E07C0DBFFFC0EB2
:1001F00008C0DBFFFD0E09C0DBFF140EDB2A150E65
:1002000001E3DB2A78D7140EDB6A150EDB6A140EC5
:10021000DBCF14F0150EDBCF15F0166A176A15AE9A
:1002200002D016681768F60EDBCF07F0F70EDBCFAB
:1002300008F0F80EDBCF09F0F90EDBCF0AF017500B
:100240000A18E8AE02D00A3408D00750145C0850EF
:100250001558095016580A5017584EE2ACA2FED74E
:10026000D9CF16F0DACF17F0F60EDBCF1CF0F70E71
:10027000DBCF1DF0F80EDBCF1EF0F90EDBCF1FF049
:100280001C06000E1D5A1E5A1F5A140EDBCF20F0FA
:10029000150EDBCF21F0226A236A21AE02D022683C
:1002A000236820501C5C186E21501D58196E225076
:1002B0001E581A6E23501F581B6E020E086E096AD4
:1002C00018C00DF019C00EF016EC12F016500624EE
:1002D000E96E17500720EA6EEECF14F0EFCF15F05D
:1002E000300E1424E66E43EC16F0E552140EDB2AB1
:1002F000150E01E3DB2A8BD7160EE15C02E2E16A00
:10030000E552E16EE552E5CFDAFFE7CFD9FF120003
:10031000D9CFE6FFDACFE6FFE1CFD9FFE2CFDAFFB0
:10032000E652E652E652E652E652DE6ADD6A020E16
:10033000DB6A030EDB6A040EDB6AD950020FE96E3A
:10034000000EDA20EA6EEE50ED1001E08BD0ABA289
:1003500002D0AB98AB88D9CFE9FFDACFEAFFEE50F5
:10036000ED100FE19EAAFED77BEC15F0E76E040EB0
:10037000E7CFDBFFDB50240803E1010EDE6EDD6A10
:10038000EAD7ABA202D0AB98AB88DE6ADD6ADECFDB
:1003900014F0DDCF15F0D890155004E6500E145C23
:1003A000000E155846E29EAAFED77BEC15F0E66ECD
:1003B000DECFE9FFDDCFEAFF000EE9260F0EEA22CD
:1003C000E552E750EF6ED9CFE9FFDACFEAFF040E2E
:1003D000EE1801E1ED500FE1430E0F01045D01E164
:1003E0000AD0DECFE9FFDDCFEAFF000EE9260F0ECF
:1003F000EA222A0EEF6EDECFE9FFDDCFEAFF000E24
:10040000E9260F0EEA22EF502A0803E1510EDE6EB4
:10041000DD6ADF2A010E01E3DB2AD9CFE9FFDACF5B
:10042000EAFF500EEE1801E1ED5002E1DE6ADD6AEE
:10043000AED7470E0F01005D14E1500E015D11E1D2
:10044000520E025D0EE14D0E035D0BE1430E045DA5
:1004500008E1010EF36E020EF3CFDBFF030EDB6A41
:100460000DD86BD7050EE15C02E2E16AE552E16E60
:10047000E552E5CFDAFFE7CFD9FF1200D9CFE6FF8B
:10048000DACFE6FFE1CFD9FFE2CFDAFF160EE124A3
:1004900002E3E168E652E16EDE6ADD6A020EDB6AC3
:1004A000030EDB6A040EDB6A050EDB6A300EF36EA8
:1004B000060EF3CFDBFFD950070FE96E000EDA20EE
:1004C000EA6E200EEE6EEE6EEE6EEE6EEE6EEE6E7E
:1004D000EE6EEE6EEE6EEE6EEE6A120EDB6A130ECE
:1004E000DB6A140EDB6A150EDB6A060EDB502A0887
:1004F00001E122D2040EDBCF14F0050EDBCF15F0A4
:1005000014C0E6FF15C0E6FF000EE66E0F0EE66EA5
:100510007EEC16F0E552E552E552E7CF15F0E552D4
:10052000E7CF14F0F3CF16F0F4CF17F01450165CA9
:100530001550175801E200D2040EDBCFE9FF050E7B
:10054000DBCFEAFF000EE9260F0EEA22060EEFCF00
:10055000DBFFDB502C0809E1DF2A010E01E3DB2A77
:10056000020EDB6A030EDB6AE1D1D9CFE9FFDACFF5
:10057000EAFF010EEE1801E1ED5001E093D0D950F1
:10058000020FE96E000EDA20EA6EEE50ED1001E087
:1005900089D0010EE76E040EDBCFE9FF050EDBCF3D
:1005A000EAFFE750E926000EEA22000EE9260F0EC8
:1005B000EA22EF50D00F146E040EDBCFE9FF050ED8
:1005C000DBCFEAFF000EE9260F0EEA22EF50D00F34
:1005D0000A0DF350142400018C6F8D6B800B01E029
:1005E0008D69030EE76E040EDBCFE9FF050EDBCF4E
:1005F000EAFFE750E926000EEA22000EE9260F0E78
:10060000EA22EF50D00F146E020EE76E040EDBCF1D
:10061000E9FF050EDBCFEAFFE750E926000EEA22EC
:10062000000EE9260F0EEA22EF50D00F0A0DF3500C
:1006300014248E6F8F6B800B01E08F69050EE76EBF
:10064000040EDBCFE9FF050EDBCFEAFFE750E9261A
:10065000000EEA22000EE9260F0EEA22EF50D00F1C
:10066000146E040EE76EDBCFE9FF050EDBCFEAFF69
:10067000E750E926000EEA22000EE9260F0EEA22D4
:10068000EF50D00F0A0DF3501424906F916B800B34
:1006900001E09169010EF36E020EF3CFDBFF030E52
:1006A000DB6A44D1D9CFE9FFDACFEAFF020EEE18B8
:1006B00001E1ED502EE1D950020FE96E000EDA2073
:1006C000EA6EEE50ED1025E1040EDBCFE9FF050EDA
:1006D000DBCFEAFF000EE9260F0EEA22EF504108B9
:1006E0000DE1010E0001926F936B8CC094F08DC0F0
:1006F00095F08EC096F08FC097F003D00001926BFA
:10070000936B010EF36E020EF3CFDBFF030EDB6A79
:100710000DD1D9CFE9FFDACFEAFF030EEE1801E1E0
:10072000ED5068E1D950020FE96E000EDA20EA6E52
:10073000EE50ED105FE1120EDB6A130EDB6A140E51
:10074000DB6A150EDB6A140EDBCF14F0150EDBCF5F
:1007500015F0D890155004E6040E145C000E1558E0
:1007600041E2120EDBCF14F0130EDBCF15F0040EB6
:10077000DB501424E96E050EDB501520EA6E000EE6
:10078000E9260F0EEA22EF502C0805E1140EDB2AB1
:10079000150E01E3DB2A120EDBCF14F0130EDBCFB4
:1007A00015F0040EDB501424E96E050EDB50152005
:1007B000EA6E000EE9260F0EEA22EF50E66E120EE8
:1007C000DBCFE9FF130EDBCFEAFF9A0EE926000E1E
:1007D000EA22E552E750EF6E120EDB2A130E01E318
:1007E000DB2AB1D7010EF36E020EF3CFDBFF030E4F
:1007F000DB6A9CD0D9CFE9FFDACFEAFF090EEE1809
:1008000001E1ED5001E092D0D950020FE96E000EE7
:10081000DA20EA6EEE50ED1001E088D0010EE76EAE
:10082000040EDBCFE9FF050EDBCFEAFFE750E92638
:10083000000EEA22000EE9260F0EEA22EF50D00F3A
:10084000146E040EDBCFE9FF050EDBCFEAFF000ECE
:10085000E9260F0EEA22EF50D00F0A0DF3501424B0
:1008600000018A6F8B6B800B01E08B69030EE76ED2
:10087000040EDBCFE9FF050EDBCFEAFFE750E926E8
:10088000000EEA22000EE9260F0EEA22EF50D00FEA
:10089000146E020EE76E040EDBCFE9FF050EDBCF10
:1008A000EAFFE750E926000EEA22000EE9260F0EC5
:1008B000EA22EF50D00F0A0DF3501424886F896B91
:1008C000800B01E08969050EE76E040EDBCFE9FFBE
:1008D000050EDBCFEAFFE750E926000EEA22000E04
:1008E000E9260F0EEA22EF50D00F146E040EE76EC9
:1008F000DBCFE9FF050EDBCFEAFFE750E926000E6C
:10090000EA22000EE9260F0EEA22EF50D00F0A0D60
:10091000F3501424866F876B800B01E08769010E0A
:10092000F36E020EF3CFDBFF030EDB6A040EDB2A4D
:10093000050E01E3DB2AD9D5160EE15C02E2E16A7D
:10094000E552E16EE552E5CFDAFFE7CFD9FF1200BD
:10095000E9CFE4FFEACFE4FFF6CFE4FFF7CFE4FF0F
:10096000F5CFE4FFF3CFE4FFF4CFE4FFFACFE4FFE9
:1009700000EE00F0140EE80403E3EECFE4FFFBD733
:1009800000EE14F0120EE80403E3EECFE4FFFBD711
:10099000E652F2A236D081949AEC15F0F3CFB7F07C
:1009A000F4CFB8F0296A2A6A010E2B6E00C12CF030
:1009B00001C12DF02E6A2C50295C266E2D502A582C
:1009C000276E2E502B58286E26C0E6FF27C0E6FF64
:1009D000D8EC15F0E552E552B9EC15F0F3CF82F002
:1009E000F4CF83F0000EE66EE66AF4EC15F0E55203
:1009F000E5529D809E900001DB6BDC6B89D8F29202
:100A000058D0F0A010D0B9EC15F0F3CFE3F0F4CF4C
:100A1000E4F090C0E7F091C0E8F0010E0001E56F4E
:100A2000E66BF09046D09EA044D08174296A2A6A71
:100A3000010E2B6E0001EA6ADB25E96EDC51EA2229
:100A4000D890E936EA36000EE926010EEA22EECF0A
:100A50002CF0EFCF2DF02E6A2C50295C266E2D50F5
:100A60002A58276E2E502B58286E26C0E6FF27C026
:100A7000E6FFD8EC15F0E552E552D7C026F0D8C015
:100A800027F0D89026362736020E265E000E275A0B
:100A90000001DC512718E8AE02D0273404D02650DC
:100AA000DB5D2750DC5901E39D90DB2B000EDC233E
:100AB0009E90E55200EE25F0120EE80403E3E5CF28
:100AC000EDFFFBD700EE13F0140EE80403E3E5CFCF
:100AD000EDFFFBD7E5CFFAFFE5CFF4FFE5CFF3FF5E
:100AE000E5CFF5FFE5CFF7FFE5CFF6FFE5CFEAFF6E
:100AF000E5CFE9FF1100D8CFE4FFE0CFE4FFE46EDB
:100B0000E652E552E550E5CFE0FFE5CFD8FF100013
:100B10000001902B000E91233C0E91AF02D0D89093
:100B200003D0905D000E915905E38E2B000E8F23AC
:100B3000906B916B3C0E8FAF02D0D89003D08E5D3E
:100B4000000E8F5905E38C2B000E8D238E6B8F6B5F
:100B5000180E8DAF02D0D89003D08C5D000E8D5949
:100B600005E38A2B000E8B238C6B8D6B010E88198D
:100B700001E1895110E11F0E8BAF02D0D89003D054
:100B80008A5D000E8B5907E3882B000E8923010E26
:100B90008A6F8B6B2DD1020E881901E1895125E1F5
:100BA0001C0E8BAF02D0D89003D08A5D000E8B59FB
:100BB0001CE386C014F087C015F0040E0D6E0E6A9B
:100BC00014C008F015C009F0BCEC11F004C014F01A
:100BD00005C015F01450151008E00001882B000E18
:100BE0008923010E8A6F8B6B03D10001020E8819D5
:100BF00001E1895125E11D0E8BAF02D0D89003D0C1
:100C00008A5D000E8B591CE386C014F087C015F076
:100C1000040E0D6E0E6A14C008F015C009F0BCEC8D
:100C200011F004C014F005C015F01450151008E1BF
:100C30000001882B000E8923010E8A6F8B6BD8D0A0
:100C40000001030E881901E1895110E11F0E8BAFDD
:100C500002D0D89003D08A5D000E8B5907E3882B11
:100C6000000E8923010E8A6F8B6BC2D0040E881987
:100C700001E1895110E11E0E8BAF02D0D89003D054
:100C80008A5D000E8B5907E3882B000E8923010E25
:100C90008A6F8B6BADD0050E881901E1895110E187
:100CA0001F0E8BAF02D0D89003D08A5D000E8B59F7
:100CB00007E3882B000E8923010E8A6F8B6B98D077
:100CC000060E881901E1895110E11E0E8BAF02D08A
:100CD000D89003D08A5D000E8B5907E3882B000E55
:100CE0008923010E8A6F8B6B83D0070E881901E16F
:100CF000895110E11F0E8BAF02D0D89003D08A5DCE
:100D0000000E8B5907E3882B000E8923010E8A6F92
:100D10008B6B6ED0080E881901E1895110E11F0E0E
:100D20008BAF02D0D89003D08A5D000E8B5907E3B9
:100D3000882B000E8923010E8A6F8B6B59D0090E08
:100D4000881901E1895110E11E0E8BAF02D0D890B5
:100D500003D08A5D000E8B5907E3882B000E892390
:100D6000010E8A6F8B6B44D00A0E881901E18951FC
:100D700010E11F0E8BAF02D0D89003D08A5D000E19
:100D80008B5907E3882B000E8923010E8A6F8B6B2A
:100D90002FD00B0E881901E1895110E11E0E8BAF87
:100DA00002D0D89003D08A5D000E8B5907E3882BC0
:100DB000000E8923010E8A6F8B6B1AD00C0E89AF3F
:100DC00002D0D89003D0885D000E895911E31F0E20
:100DD0008BAF02D0D89003D08A5D000E8B5908E308
:100DE000862B000E8723010E886F896B8A6F8B6BB1
:100DF0001200D7C0D9F0D8C0DAF08150100B08E04B
:100E00008150200B05E1190E0001D76FD86B1AD065
:100E10008150100B08E18150200B05E0320E0001DB
:100E2000D76FD86B0FD08150100B08E08150200B8A
:100E300005E00A0E0001D76FD86B04D00A0E00013E
:100E4000D76FD86BD951D71902E1DA51D81901E11E
:100E50007AD0146A156A166A430E176E1C6A1D6AE8
:100E6000800E1E6E400E1F6ED7C024F0D8C025F035
:100E7000D8902436253624C008F025C009F052EC5D
:100E800010F007C020F008C021F009C022F00AC00D
:100E900023F020C00CF021C00DF022C00EF023C0C2
:100EA0000FF01CC007F01DC008F01EC009F01FC0E5
:100EB0000AF04FEC11F007C018F008C019F009C093
:100EC0001AF00AC01BF018C00CF019C00DF01AC0BF
:100ED0000EF01BC00FF014C007F015C008F016C0CC
:100EE00009F017C00AF0FCEC10F007C0DFF008C0F2
:100EF000E0F009C0E1F00AC0E2F0146A240E156EB9
:100F0000F40E166E460E176EDFC00CF0E0C00DF04A
:100F1000E1C00EF0E2C00FF014C007F015C008F0F9
:100F200016C009F017C00AF04FEC11F043EC12F0B4
:100F300008C0B5F009C0B6F00001BD51B55DB36F92
:100F4000BE51B659B46FD7C0B9F0D8C0BAF0B7C067
:100F5000BBF0B8C0BCF0500EBB5F000EBC5BBBC0AA
:100F600014F0BCC015F0166A1A681B681C6AB9C078
:100F70001DF0BAC01EF01F6A1D501A5C176E1E507D
:100F80001B58186E1F501C58196E19501618E8AED1
:100F900002D0163406D01450175C1550185816504D
:100FA000195823E2BFC007F0C0C008F0C1C009F063
:100FB000C2C00AF00C6A0D6A800E0E6E3F0E0F6EF4
:100FC00065EC10F007C0BFF008C0C0F009C0C1F068
:100FD0000AC0C2F00001B351B55DBD6FB451B6593E
:100FE000BE6FF60ED56FD6694FD0BBC014F0BCC033
:100FF00015F0166A1634000E161807E6D880600E33
:101000001454EA0E1554000E165408E2010EB35F94
:10101000000EB45B9C0ED56FD66936D0B951BB5D5E
:10102000BA51BC5923E2BFC007F0C0C008F0C1C02C
:1010300009F0C2C00AF00C6A0D6A800E0E6E3F0EF7
:101040000F6E66EC10F007C0BFF008C0C0F009C01A
:10105000C1F00AC0C2F00001B351B55DBD6FB4511B
:10106000B659BE6F0A0ED56FD66B0ED0100EBB5D93
:10107000270EBC5909E2010EB325B36F000EB4214F
:10108000B46F640ED56FD66BBFC0E6FFC0C0E6FF7D
:10109000C1C0E6FFC2C0E6FF91EC14F0E552E55294
:1010A000E552E55206C014F007C015F008C016F06E
:1010B00009C017F014C00CF015C00DF016C00EF0EA
:1010C00017C00FF0BFC007F0C0C008F0C1C009F0E2
:1010D000C2C00AF0FCEC10F007C0C3F008C0C4F0B6
:1010E00009C0C5F00AC0C6F0D7C008F0D8C009F0E2
:1010F00052EC10F007C014F008C015F009C016F04B
:101100000AC017F00C6A0D6A0E6A400E0F6E14C00A
:1011100007F015C008F016C009F017C00AF04FEC30
:1011200011F007C0C7F008C0C8F009C0C9F00AC074
:10113000CAF0BFC0E6FFC0C0E6FFC1C0E6FFC2C044
:10114000E6FF91EC14F0E552E552E552E55206C097
:1011500014F007C015F008C016F009C017F0C7C09A
:101160000CF0C8C00DF0C9C00EF0CAC00FF014C01A
:1011700007F015C008F016C009F017C00AF0FCEC23
:1011800010F007C0CFF008C0D0F009C0D1F00AC0FD
:10119000D2F00001CB6BCC6BCD6BCE6BD36BD46B31
:1011A000D3C008F0D4C009F052EC10F007C014F01E
:1011B00008C015F009C016F00AC017F0C7C00CF03F
:1011C000C8C00DF0C9C00EF0CAC00FF014C007F0BF
:1011D00015C008F016C009F017C00AF072EC12F042
:1011E000010A01E0C3D0BFC0E6FFC0C0E6FFC1C036
:1011F000E6FFC2C0E6FF91EC14F0E552E552E5527D
:10120000E55206C018F007C019F008C01AF009C06E
:101210001BF0C7C00CF0C8C00DF0C9C00EF0CAC0AA
:101220000FF018C007F019C008F01AC009F01BC071
:101230000AF0FCEC10F007C014F008C015F009C06B
:1012400016F00AC017F014C00CF015C00DF016C04F
:101250000EF017C00FF0CFC007F0D0C008F0D1C01B
:1012600009F0D2C00AF066EC10F007C0CBF008C05D
:10127000CCF009C0CDF00AC0CEF0CBC007F0CCC096
:1012800008F0CDC009F0CEC00AF043EC12F008C05F
:1012900014F009C015F0CFC007F0D0C008F0D1C0DD
:1012A00009F0D2C00AF043EC12F008C016F009C0F1
:1012B00017F017501518E8AE02D0153404D01450AA
:1012C000165C1550175836E2B3C008F0B4C009F0E8
:1012D00050EC10F007C016F008C017F009C018F065
:1012E0000AC019F0C3C00CF0C4C00DF0C5C00EF0A8
:1012F000C6C00FF016C007F017C008F018C009F0FC
:1013000019C00AF066EC10F043EC12F008C014F0BB
:1013100009C015F0D3C0E9FFD4C0EAFFD890E93680
:10132000EA36000EE926010EEA2214C0EEFF15C0CF
:10133000EDFF0FD0D3C0E9FFD4C0EAFFD890E93663
:10134000EA36000EE926010EEA22B3C0EEFFB4C071
:10135000EDFFCBC0CFF0CCC0D0F0CDC0D1F0CEC02F
:10136000D2F00001D32B000ED4231AD712000E0E98
:10137000C16E050EE66E8CEC16F0E552F30E926E21
:10138000936ECF0E946E160EE66E10EC16F0E552CC
:10139000ED0EE66E1AEC15F0E552CF0EE66EE66A3B
:1013A0003C0EE66E57EC14F0E552E552E552FE0EA7
:1013B000E66E5BEC15F0E552FE0EE66E3BEC15F0CA
:1013C000E552D09E9F9A9F80F28EF28C1200D9CF68
:1013D000E6FFDACFE6FFE1CFD9FFE2CFDAFFE65250
:1013E000E652DE6ADD6A640EE66E2CEC16F0E5521B
:1013F000BEDFF29EF29C809480868088A4DBF9DCBC
:10140000000EE66EE66AD8EC15F0E552E552F28E73
:10141000F28C00019051911109E19851991106E166
:1014200085DB010E0001986F996B10D0010E91AF12
:1014300002D0D89003D0905D000E915907E3010EC1
:10144000981901E1995102E1986B996BDB51DC111C
:1014500045E1DD51DE1142E1010E921901E19351A6
:1014600011E10C0E146E280E156E166A14C0E6FFFC
:1014700015C0E6FF16C0E6FFC4EC14F0E552E552D5
:10148000E55210D00A0E146E280E156E166A14C09E
:10149000E6FF15C0E6FF16C0E6FFC4EC14F0E55207
:1014A000E552E55290C014F091C015F0020E0D6E99
:1014B0000E6A14C008F015C009F0BCEC11F004C0AD
:1014C00014F005C015F01450E8B08086E8A08096AE
:1014D000010E0001DD6FDE6B8CDC05D0DB51DC1111
:1014E00002E0DD6BDE6B0001010EE51901E1E65162
:1014F00001E109D88ED7E552E552E552E5CFDAFF92
:10150000E7CFD9FF1200D9CFE6FFDACFE6FFE1CF70
:10151000D9FFE2CFDAFF0F0EE12402E3E168E652E1
:10152000E16ED9CFE9FFDACFEAFF200EEE6EEE6E64
:10153000EE6EEE6EEE6EEE6EEE6EEE6EEE6EEE6ECB
:10154000EE6A0B0EDB6A0C0EDB6A0D0EDB6A0E0E0A
:10155000DB6A186A196A7A0E1A6E440E1B6EE3C0B3
:1015600008F0E4C009F052EC10F007C01CF008C00D
:101570001DF009C01EF00AC01FF01CC00CF01DC0F9
:101580000DF01EC00EF01FC00FF018C007F019C0FC
:1015900008F01AC009F01BC00AF04FEC11F007C0A8
:1015A00014F008C015F009C016F00AC017F082C088
:1015B00008F083C009F050EC10F007C020F008C01C
:1015C00021F009C022F00AC023F020C00CF021C095
:1015D0000DF022C00EF023C00FF014C007F015C0AC
:1015E00008F016C009F017C00AF0FCEC10F043EC4C
:1015F00012F008C0E3F009C0E4F0000E146E280EEB
:10160000156E166A14C0E6FF15C0E6FF16C0E6FFA9
:10161000C4EC14F0E552E552E552020EE66EE66ABD
:10162000E66AE66A8CC014F08DC015F0166A176A77
:1016300015AE02D01668176814C0E6FF15C0E6FFA5
:1016400016C0E6FF17C0E6FF22EC00F0186E080E89
:10165000E15C02E2E16AE552E16E1850FE0E146EA2
:10166000270E156E166A14C0E6FF15C0E6FF16C0F9
:10167000E6FFC4EC14F0E552E552E552020EE66EC8
:10168000E66AE66AE66A8EC014F08FC015F0166A44
:10169000176A15AE02D01668176814C0E6FF15C0A9
:1016A000E6FF16C0E6FF17C0E6FF22EC00F0186E5A
:1016B000080EE15C02E2E16AE552E16E1850FE0EAE
:1016C000146E270E156E166A14C0E6FF15C0E6FFED
:1016D00016C0E6FFC4EC14F0E552E552E552020EE6
:1016E000E66EE66AE66AE66AE7C014F0E8C015F05E
:1016F000166A176A15AE02D01668176814C0E6FF9E
:1017000015C0E6FF16C0E6FF17C0E6FF22EC00F0AA
:10171000186E080EE15C02E2E16AE552E16E1850D3
:101720000E0E146E280E156E166A14C0E6FF15C054
:10173000E6FF16C0E6FFC4EC14F0E552E552E552B0
:10174000030EE66EE66AE66AE66AE3C014F0E4C0F9
:1017500015F0166A176A15AE02D01668176814C01D
:10176000E6FF15C0E6FF16C0E6FF17C0E6FF22EC55
:1017700000F0186E080EE15C02E2E16AE552E16EEB
:101780001850FC0E146E270E156E166A14C0E6FF74
:1017900015C0E6FF16C0E6FFC4EC14F0E552E552B2
:1017A000E552020EE66EE66AE66AE66A8AC014F060
:1017B0008BC015F0166A176A15AE02D01668176846
:1017C00014C0E6FF15C0E6FF16C0E6FF17C0E6FF2F
:1017D00022EC00F0186E080EE15C02E2E16AE552CC
:1017E000E16E1850FA0E146E270E156E166A14C0AC
:1017F000E6FF15C0E6FF16C0E6FFC4EC14F0E552A4
:10180000E552E552020EE66EE66AE66AE66A88C0CE
:1018100014F089C015F0166A176A15AE02D0166862
:10182000176814C0E6FF15C0E6FF16C0E6FF17C034
:10183000E6FF22EC00F0186E080EE15C02E2E16ABD
:10184000E552E16E1850FA0E146E270E156E166AE8
:1018500014C0E6FF15C0E6FF16C0E6FFC4EC14F0A6
:10186000E552E552E552020EE66EE66AE66AE66A7F
:1018700086C014F087C015F0166A176A15AE02D03C
:101880001668176814C0E6FF15C0E6FF16C0E6FF2D
:1018900017C0E6FF22EC00F0186E080EE15C02E2D1
:1018A000E16AE552E16E1850FC0E146E270E156EBB
:1018B000166A14C0E6FF15C0E6FF16C0E6FFC4ECCA
:1018C00014F0E552E552E5520001010E921901E1D2
:1018D000935111E1F80E146E270E156E166A14C09E
:1018E000E6FF15C0E6FF16C0E6FFC4EC14F0E552B3
:1018F000E552E55210D0F60E146E270E156E166ADC
:1019000014C0E6FF15C0E6FF16C0E6FFC4EC14F0F5
:10191000E552E552E552FC0E146E270E156E166A5E
:1019200014C0E6FF15C0E6FF16C0E6FFC4EC14F0D5
:10193000E552E552E552020EE66EE66AE66AE66AAE
:10194000D7C014F0D8C015F0166A176A15AE02D0C9
:101950001668176814C0E6FF15C0E6FF16C0E6FF5C
:1019600017C0E6FF22EC00F0186E080EE15C02E200
:10197000E16AE552E16E1850FC0E146E270E156EEA
:10198000166A14C0E6FF15C0E6FF16C0E6FFC4ECF9
:1019900014F0E552E552E5520B0EDB6A0C0EDB6AE1
:1019A0000D0EDB6A0E0EDB6AD9500D0FE96E000ECC
:1019B000DA20EA6EEE50ED1038E10B0EDBCFE9FFD6
:1019C0000C0EDBCFEAFF9A0EE926000EEA22EF505A
:1019D00045080DE00B0EDBCFE9FF0C0EDBCFEAFF75
:1019E0009A0EE926000EEA22EF50570807E1010E91
:1019F000F36E0D0EF3CFDBFF0E0EDB6A0B0EDBCFAB
:101A0000E9FF0C0EDBCFEAFF9A0EE926000EEA2270
:101A1000EF50E66E43EC16F0E552ACA2FED70B0E8B
:101A2000DB2A0C0E01E3DB2ABFD7FC0E146E270E57
:101A3000156E166A14C0E6FF15C0E6FF16C0E6FF75
:101A4000C4EC14F0E552E552E552020EE66EE66A89
:101A5000E66AE66A94C014F095C015F0166A176A33
:101A600015AE02D01668176814C0E6FF15C0E6FF71
:101A700016C0E6FF17C0E6FF22EC00F0186E080E55
:101A8000E15C02E2E16AE552E16E1850FE0E146E6E
:101A9000270E156E166A14C0E6FF15C0E6FF16C0C5
:101AA000E6FFC4EC14F0E552E552E552020EE66E94
:101AB000E66AE66AE66A96C014F097C015F0166A00
:101AC000176A15AE02D01668176814C0E6FF15C075
:101AD000E6FF16C0E6FF17C0E6FF22EC00F0186E26
:101AE000080EE15C02E2E16AE552E16E18500C0E6C
:101AF000146E280E156E166A14C0E6FF15C0E6FFB8
:101B000016C0E6FFC4EC14F0E552E552E5520001C0
:101B1000E56BE66B0F0EE15C02E2E16AE552E16E15
:101B2000E552E5CFDAFFE7CFD9FF120088EC01F0EC
:101B30000001010E905F000E915B9251E8B080842D
:101B4000E8A080941200F30E146E270E156E166A2C
:101B500014C0E6FF15C0E6FF16C0E6FFC4EC14F0A3
:101B6000E552E552E552C80E146E270E156E166A40
:101B700014C0E6FF15C0E6FF16C0E6FFC4EC14F083
:101B8000E552E552E5529D0E146E270E156E166A4B
:101B900014C0E6FF15C0E6FF16C0E6FFC4EC14F063
:101BA000E552E552E552C80E146E270E156E166A00
:101BB00014C0E6FF15C0E6FF16C0E6FFC4EC14F043
:101BC000E552E552E552F30E146E270E156E166AB5
:101BD00014C0E6FF15C0E6FF16C0E6FFC4EC14F023
:101BE000E552E552E552890E146E270E156E166AFF
:101BF00014C0E6FF15C0E6FF16C0E6FFC4EC14F003
:101C0000E552E552E552F30E146E270E156E166A74
:101C100014C0E6FF15C0E6FF16C0E6FFC4EC14F0E2
:101C2000E552E552E5526A0E146E270E156E166ADD
:101C300014C0E6FF15C0E6FF16C0E6FFC4EC14F0C2
:101C4000E552E552E5520001926B936B000192510F
:101C5000931103E188EC01F0F9D74B0E146E270EB7
:101C6000156E166A14C0E6FF15C0E6FF16C0E6FF43
:101C7000C4EC14F0E552E552E552290E146E270E1D
:101C8000156E166A14C0E6FF15C0E6FF16C0E6FF23
:101C9000C4EC14F0E552E552E55281B0FED781A0C4
:101CA000FED7000EE66EE66AF4EC15F0E552E5525A
:101CB00081B0FED7B9EC15F0F3CF84F0F4CF85F006
:101CC00081A0FED7B9EC15F0F3CF82F0F4CF83F00A
:101CD000B9EC15F0F3CF80F0F4CF81F0140E146E50
:101CE000270E156E166A14C0E6FF15C0E6FF16C073
:101CF000E6FFC4EC14F0E552E552E552050EE66E3F
:101D0000E66AE66AE66A82C014F083C015F0166AD5
:101D1000176A14C0E6FF15C0E6FF16C0E6FF17C03D
:101D2000E6FF22EC00F0186E080EE15C02E2E16AC8
:101D3000E552E16E1850FF0E146E260E156E166AEF
:101D400014C0E6FF15C0E6FF16C0E6FFC4EC14F0B1
:101D5000E552E552E552050EE66EE66AE66AE66A87
:101D600084C014F085C015F0166A176A14C0E6FF27
:101D700015C0E6FF16C0E6FF17C0E6FF22EC00F034
:101D8000186E080EE15C02E2E16AE552E16E18505D
:101D9000E00E146E260E156E166A14C0E6FF15C00E
:101DA000E6FF16C0E6FFC4EC14F0E552E552E5523A
:101DB000BDDEF30E146E270E156E166A14C0E6FF14
:101DC00015C0E6FF16C0E6FFC4EC14F0E552E5527C
:101DD000E552C00E146E260E156E166A14C0E6FF8C
:101DE00015C0E6FF16C0E6FFC4EC14F0E552E5525C
:101DF000E552B90E146E260E156E166A14C0E6FF73
:101E000015C0E6FF16C0E6FFC4EC14F0E552E5523B
:101E1000E552020EE66EE66AE66AE66A8CC014F0E7
:101E20008DC015F0166A176A15AE02D016681768CD
:101E300014C0E6FF15C0E6FF16C0E6FF17C0E6FFB8
:101E400022EC00F0186E080EE15C02E2E16AE55255
:101E5000E16E1850FE0E146E270E156E166A14C031
:101E6000E6FF15C0E6FF16C0E6FFC4EC14F0E5522D
:101E7000E552E552020EE66EE66AE66AE66A8EC052
:101E800014F08FC015F0166A176A15AE02D01668E6
:101E9000176814C0E6FF15C0E6FF16C0E6FF17C0BE
:101EA000E6FF22EC00F0186E080EE15C02E2E16A47
:101EB000E552E16E1850FE0E146E270E156E166A6E
:101EC00014C0E6FF15C0E6FF16C0E6FFC4EC14F030
:101ED000E552E552E552020EE66EE66AE66AE66A09
:101EE00090C014F091C015F0166A176A15AE02D0B2
:101EF0001668176814C0E6FF15C0E6FF16C0E6FFB7
:101F000017C0E6FF22EC00F0186E080EE15C02E25A
:101F1000E16AE552E16E1850B50E146E260E156E8C
:101F2000166A14C0E6FF15C0E6FF16C0E6FFC4EC53
:101F300014F0E552E552E552020EE66EE66AE66AF4
:101F4000E66A8AC014F08BC015F0166A176A15AEDF
:101F500002D01668176814C0E6FF15C0E6FF16C069
:101F6000E6FF17C0E6FF22EC00F0186E080EE15CF9
:101F700002E2E16AE552E16E1850FA0E146E270E85
:101F8000156E166A14C0E6FF15C0E6FF16C0E6FF20
:101F9000C4EC14F0E552E552E552020EE66EE66A34
:101FA000E66AE66A88C014F089C015F0166A176AF6
:101FB00015AE02D01668176814C0E6FF15C0E6FF1C
:101FC00016C0E6FF17C0E6FF22EC00F0186E080E00
:101FD000E15C02E2E16AE552E16E1850B10E146E66
:101FE000260E156E166A14C0E6FF15C0E6FF16C071
:101FF000E6FFC4EC14F0E552E552E552020EE66E3F
:10200000E66AE66AE66A86C014F087C015F0166ACA
:10201000176A15AE02D01668176814C0E6FF15C01F
:10202000E6FF16C0E6FF17C0E6FF22EC00F0186ED0
:10203000080EE15C02E2E16AE552E16E1850AC0E76
:10204000146E260E156E166A14C0E6FF15C0E6FF64
:1020500016C0E6FFC4EC14F0E552E552E552C00E9E
:10206000146E260E156E166A14C0E6FF15C0E6FF44
:1020700016C0E6FFC4EC14F0E552E552E552F30E4B
:10208000146E270E156E166A14C0E6FF15C0E6FF23
:1020900016C0E6FFC4EC14F0E552E552E55212001A
:1020A000019E08D0019E09AE05D0086C091EE86AA1
:1020B0000922018E09C003F008C002F0136A126AF7
:1020C0008E0E046E056AECEF12F00F7E016A28ECAA
:1020D00013F040EC13F001B6D0EF12F001A20AD0D9
:1020E00001AA03D001BED0EF12F001A4DCEF12F080
:1020F000D9EF12F001AA05D001ACDCEF12F0D9EF54
:1021000012F001A00AD001A808D001BE04D001A499
:1021100002D0E5EF12F0E9EF12F0126A056A0F50F3
:102120000A5C116E10E307C013F008C002F009C08A
:1021300003F00AC010F00CC007F00DC008F00EC08C
:1021400009F0013A09D00CC013F00DC002F00EC026
:1021500003F00FC010F0116C019E01BC018E10C085
:1021600004F001B018EF13F01A0E116018EF13F01D
:10217000046A0A6A01A408D0076C081E091E0A1E18
:10218000E86A082209220A2201AC08D0136C021E58
:10219000031E041EE86A022203220422066A115268
:1021A00007E00A340932083207320632112EF9D715
:1021B0000750132608500222095003220A50042215
:1021C00006C012F0019E04AE0BD0126C131E021E4C
:1021D000031E041EE86A1322022203220422018E37
:1021E00004A006D0D8800332023213321232102AF1
:1021F00010C004F0ECEF12F0016A28EC13F040EC90
:1022000013F001B6D0EF12F001A205D001BAD0EF61
:1022100012F0D7EF12F001BAE3EF12F001A005D0EF
:1022200001B8D0EF12F0E3EF12F001B8D7EF12F0DF
:10223000056A7F0E0A24046EE86A05220F50045EC8
:10224000E86A055A1A0E106E0A6A126A136A026A5E
:10225000036A0C50075E0D50085A0E50095A000EC2
:102260000A5A09E70C5007260D5008220E50092281
:10227000000E0A2201D0128AD89007360836093695
:102280000A36D8901236133602360336102EE1D7AE
:10229000095008100710D8A4128AECEF12F0016A56
:1022A00028EC13F040EC13F001B6D0EF12F001A2CD
:1022B00005D001B8D0EF12F0D7EF12F001AA05D087
:1022C00001B0D0EF12F0D7EF12F001B002D001A8A8
:1022D00002D0E3EF12F0056A0F500A24046EE86A98
:1022E00005227E0E045EE86A055A126A136A026AC3
:1022F000036A0E500902F4CF03F0F3CF02F00D5041
:102300000902F3501326F4500222000E03220E504D
:102310000802F3501326F4500222000E03220C5040
:102320000902F3501226F4501322000E0222032257
:102330000D500802F3501226F4501322000E022210
:1023400003220E500702F3501226F4501322000EFF
:10235000022203220C500802F4501226000E13220F
:10236000022203220D500702F4501226000E1322FF
:1023700002220322ECEF12F0006A0EAEC5EF11F05C
:102380000D6C0E1EE86A0E22001E09AECDEF11F094
:10239000086C091EE86A0922001E5AEC16F009BEF4
:1023A000DDEF11F000AE000C086C091EE86A09228E
:1023B000046C051EE86A0522000C00BED4EF11F083
:1023C0000188FF0C006AE86A0EAEEFEF11F00B6CAB
:1023D0000C1E0D1E0E1E0C220D220E22001E09AE1A
:1023E000FAEF11F0066C071E081E091E07220822CC
:1023F0000922001EF6EC14F009BE11EF12F000AE37
:10240000000C066C071E081E091EE86A0722082237
:102410000922026C031E041E051E0322042205224B
:10242000000C00BE01EF12F00188FF0C09C013F090
:1024300008C012F008500D02F4CF07F0F3CF06F0F9
:1024400009500E02F4CF09F0F3CF08F00D02F3505B
:102450000726F4500822E86A092212500E02F350AF
:102460000726F4500822E86A09220EAE3CEF12F06B
:102470001250085E1350095A13AE000C0D50085E3E
:102480000E50095A000C016A28EC13F001B64DEF0A
:1024900012F001A20ED001B405D07F0E096EFF0E1E
:1024A000086E1FD0800E096E086A1BD0096A086A80
:1024B00018D001B0FBD78F0E0A60EDD77E0E0A64EC
:1024C000F5D78E0E0A5C05E0D890093208320A2A48
:1024D000F8D701A406D0086C091EE86A092209AEE3
:1024E000E5D712007BEC12F001B6000C01B0000C35
:1024F00001A4000C010C016A28EC13F040EC13F06D
:1025000001B6120001AE08D001A004D001A802D08B
:1025100001801200019012000F500A5C0BE10E5076
:10252000095C08E10D50085C05E10C50075C02E114
:1025300001801200D8A002D0018E10D00A500FC026
:102540000AF00F6E09500EC009F00E6E08500DC053
:1025500008F00D6E07500CC007F00C6E0F500A5CAF
:1025600010E0FF0F09E0019001B403D001AE018437
:10257000120001AE019412000F2AD8900E320D32D3
:102580000C320C50075E0D50085A0E50095A09BE05
:10259000EAD7D8900736083609360A2EF8D7C8D7B2
:1025A0007F0E0A6EFF0E096E086E076E12007F0E18
:1025B00001BEFF0E0A6E02D07F0E0A6E800E096EFB
:1025C000086A076AF3D701AE04D0800E0A6E096A62
:1025D000F7D70A6A096AF4D70350021013101210D1
:1025E000F8E005BEF0D703BE0CD004500510EBE0B8
:1025F000D89012361336023603360406D8A00506E4
:10260000F2D70550D4E10428D2E012AE11D07F0EEB
:10261000121402E113A00CD0132AE86A022203224A
:1026200007E3D880033202321332042A0428BFE0C1
:102630000450C9E013C007F002C008F00334096E6B
:1026400004300A6E09320A9E01BE0A8ED6EF12F0DD
:1026500009360A3602E30184017E06E101800A6A36
:10266000096A086A076A12000A2803E0D88009325A
:102670001200D890093202E1018212000186120094
:102680000E360F3602E3018C017E06E101880F6AE7
:102690000E6A0D6A0C6A12000F2803E0D8800E3211
:0C26A0001200D8900E32EAE1018A12000C
:0426AC00202A2A2A8C
:1026B000002F323000202D20000A0D2A2A2A200067
:1026C0000A0D2A2A2A2A2A2A2A2A2A2A2A2A2A2AA7
:1026D0002A2A2A2A2A2A2A2A2A2A2A2A2A2A2A0084
:1026E0000A0D3E2052656164696E67204E4D45417A
:1026F00020466F726D61742054696D652020000A58
:102700000D3E3E205050535F686967685F74696D85
:10271000652020000A0D3E3E205050535F746F74B8
:10272000616C5F74696D6520000A0D3E2043616C29
:102730006962726174696E6720746F203150505302
:10274000207265666572656E6365000A0D3E2053F2
:102750006174656C6C697465206C6F636B20657364
:102760007461626C6973686564000A0D3E2057618C
:102770006974696E6720666F7220736174656C6C32
:10278000697465206C6F636B000A0D53797374650F
:102790006D2048617320426F6F746564000A0D2AD2
:1027A0002A2A204E4F564120524F424F54494353FC
:1027B000202D2047505320434C4F434B202D205673
:1027C000352E30202A2A2A000A0D2A2A2A2A2A2AC5
:1027D0002A2A2A2A2A2A2A2A2A2A2A2A2A2A2A2A59
:1027E0002A2A2A2A2A2A2A2A2A2A2A2A2A2A2A2A49
:1027F0002A2A000A0D00560041002F002C003A0042
:102800000A0D24434C4F434B2C002D002A002E0070
:102810002A0EF66E000EF76E000EF86E000109002B
:10282000F550EE6F0900F550EF6F03E1EE6701D050
:102830003DD00900F550E96F0900F550EA6F090035
:10284000F550EB6F09000900F550E96E0900F550ED
:10285000EA6E090009000900F550EC6F0900F55017
:10286000ED6F09000900F6CFF0F0F7CFF1F0F8CFE7
:10287000F2F0E9C0F6FFEAC0F7FFEBC0F8FF000195
:10288000EC5302E1ED5307E00900F550EE6EEC0762
:10289000F8E2ED07F9D7F0C0F6FFF1C0F7FFF2C09C
:0E28A000F8FF0001EE07000EEF5BBFD712003D
:0228AE00D9CF80
:1028B000E6FFDACFE6FFE1CFD9FFE2CFDAFFAC6A7D
:1028C000AB6AFD0EDBA005D0AC88DBA404D0AC8ED7
:1028D00002D0DBB8AC84DBA202D0AC8CAB8CDBA624
:1028E00002D0AB8801D0AB8ADBAC02D09D8A01D08C
:1028F0009D9ADBAE02D09D8801D09D98FB0EDB50E7
:10290000AF6EFC0EDBCF15F015C014F0156A145035
:10291000B06EAC8AAB8EE552E5CFDAFFE7CFD9FFD8
:022920001200A3
:0E292200D9CFE6FFDACFE6FFE1CFD9FFE2CF53
:10293000DAFFE652E652D950FD0F146EFF0EDA2090
:1029400014C0DEFFDD6EDECFE9FFDDCFEAFFEF9ED4
:10295000FA0EDBCF14F0FB0EDBCF15F0FC0EDBCF55
:1029600016F0FD0EDBCF17F014C006F015C007F00F
:1029700016C008F017C009F0E552E552E552E5CF60
:08298000DAFFE7CFD9FF1200D6
:08298800D9CFE6FFDACFE6FF2C
:10299000E1CFD9FFE2CFDAFFACA2FED7FB0EDBCF4F
:1029A000F6FFFC0EDBCFF7FFFD0EDBCFF8FF0800D4
:1029B000F550E66E43EC16F0E552D950FB0FE96E88
:1029C000FF0EDA20EA6EEFCFF6FFEE2AEFCFF7FF29
:1029D000000EEE22EFCFF8FFEE220800F550DCE10A
:0C29E000E552E5CFDAFFE7CFD9FF120087
:0429EC00056A046A0A
:1029F000036A026A200EE76ED8900636073608365C
:102A0000093602360336043605360B50025C0C508C
:102A100003580D5004580E50055809E30B50025E40
:102A20000C50035A0D50045A0E50055A062AE72E30
:042A3000E4D71200D5
:0C2A3400D9CFE6FFDACFE6FFE1CFD9FFF3
:102A4000E2CFDAFFFD0EDB507E0BCD6EFD0EDBAC70
:102A500002D0CD8E01D0CD9ECF6ACE6A9E90DBAEE5
:102A600002D09D8001D09D90CD80E552E5CFDAFF68
:062A7000E7CFD9FF1200C0
:0A2A7600D9CFE6FFDACFE6FFE1CF8B
:102A8000D9FFE2CFDAFFF090FD0EDBA202D0F18A8F
:102A900001D0F19ADBAE02D0F08601D0F096DBA037
:102AA00002D0F18E02D0F19E9382E552E5CFDAFF9B
:062AB000E7CFD9FF120080
:0A2AB600D9CFE6FFDACFE6FFE1CF4B
:102AC000D9FFE2CFDAFFF292FD0EDBA202D0F18C49
:102AD00001D0F19CDBAE02D0F28801D0F298DBA0ED
:102AE00002D0F18E02D0F19E9380E552E5CFDAFF5D
:062AF000E7CFD9FF120040
:0A2AF600D9CFE6FFDACFE6FFE1CF0B
:102B0000D9FFE2CFDAFFE652F20E0001F317ABACC9
:102B100003D0F391ABB0F381ABB4F385ABB2F387E1
:102B2000AE50DF6EDF50E552E552E5CFDAFFE7CF7A
:042B3000D9FF1200B7
:0C2B3400D9CFE6FFDACFE6FFE1CFD9FFF2
:102B4000E2CFDAFFE652E652CE50DF6E010ECFCF73
:102B5000DBFFDECF14F0DDCF15F014C0F3FF15C09E
:102B6000F4FFE552E552E552E5CFDAFFE7CFD9FFB2
:022B7000120051
:0E2B7200D9CFE6FFDACFE6FFE1CFD9FFE2CF01
:102B8000DAFFE652E652D650DF6E010ED7CFDBFFFA
:102B9000DECF14F0DDCF15F014C0F3FF15C0F4FF45
:102BA000E552E552E552E5CFDAFFE7CFD9FF120053
:102BB000D9CFE6FFDACFE6FFE1CFD9FFE2CFDAFFE8
:102BC000E652E652FC0EDBCFDEFFDBCFDDFF010E6F
:102BD000DB50CF6EDF50CE6EE552E552E552E5CFC9
:082BE000DAFFE7CFD9FF120074
:082BE800D9CFE6FFDACFE6FFCA
:102BF000E1CFD9FFE2CFDAFFE652E652FC0EDBCF9F
:102C0000DEFFDBCFDDFF010EDB50D76EDF50D66E6F
:102C1000E552E552E552E5CFDAFFE7CFD9FF1200E2
:102C2000D9CFE6FFDACFE6FFE1CFD9FFE2CFDAFF77
:102C3000FD0EDB507F0BD56ED76AD66AF294FD0E7F
:102C4000DBAE02D0F28A01D0F29AD58EE552E5CF02
:082C5000DAFFE7CFD9FF120003
:082C5800FF0EE350306EEF0E99
:102C600001D0F30EE76EE72E33EF16F00C0E2F6E49
:102C7000E76AE72E39EF16F02F2E38EF16F0302ED8
:062C800031EF16F0120016
:0A2C8600D9CFE6FFDACFE6FFE1CF79
:102C9000D9FFE2CFDAFFACAC04D0AC900001F3B3C3
:102CA000AC80FD0EDB50AD6EE552E5CFDAFFE7CF2D
:042CB000D9FF120036
:0C2CB400056A046A100EE76ED89008361E
:102CC0000936043605360D50045C0E50055805E3F0
:102CD0000D50045E0E50055A082AE72EF0D7120058
:102CE0001EEE00F02EEE00F0F86A019C08EC14F0E5
:0C2CF0009FEC16F0E7EC09F0FBD7120097
:042CFC00FE0EE3CF16
:102D0000E9FFFF0EE3CFEAFFF36AF46AEE5203E055
:082D1000F34AF42AFBD712007C
:082D1800FF0EE350E84E12002B
:0E2D2000000000D000D000D0E82EFAD712003C
:022D2E0000EEB5
:0C2D300000F00F0EEE6AEA62FDD7120000
:022D3C002E0067
:022D3E00120081
:102D4000416263646566000000000000000000004E
:102D50000000000000000000000000000000000073
:102D60000000000000000000000000000000000063
:102D70000000000000000000000000000000000053
:102D80000000000000000000000000000000000043
:102D90000000000000000000000000000000000033
:102DA0000000000000000000000020202020202063
:102DB0002020202020202020202020202020202013
:102DC000202000000000000000000000004600007D
:102DD00000000000000000000000000000000000F3
:102DE0000000000000000063000000000000000080
:092DF00000803F0000000000001B
:020000040030CA
:0100010006F8
:010003000EEE
:0100060001F8
:00000001FF
